:020000040000FA
:10200000E903022FBAA2062FEE0000002000000014
:102010000063000000000001C040072F8C16000084
:10202000500000000100000076362E312D626574EC
:10203000613100000000000000000000000000000E
:10204000000000000000000041756720323320329C
:102050003032362031323A34363A3435000000001E
:102060000000000000000000000000000000000070
:1020700000200000FFFFFFFFFFFFFFFF41737365BC
:102080007274206661696C656420696E2025732C0A
:102090002025733A256420282573290D0A000000A5
:1020A00061626F72742829207761732063616C6CA0
:1020B0006564206174205043203078253038780DD5
:1020C0000A000000626F6F740000000045202825A0
:1020D0006C75292025733A206C6F616420706172E1
:1020E000746974696F6E207461626C6520657272C8
:1020F0006F72210A00000000206973206E6F742047
:10210000626F6F7461626C650000000045202825D5
:102110006C75292025733A20466163746F727920AB
:1021200061707020706172746974696F6E25730AD2
:1021300000000000452028256C75292025733A20D1
:10214000466163746F727920746573742061707076
:1021500020706172746974696F6E25730A000000E3
:10216000452028256C75292025733A204F5441209D
:1021700061707020706172746974696F6E20736C25
:102180006F7420256425730A00000000492028256B
:102190006C75292025733A2044697361626C696EFD
:1021A0006720524E47206561726C7920656E7472AB
:1021B0006F707920736F757263652E2E2E0A000082
:1021C000726F6D5F696E646578203C20320000009C
:1021D0002F2F4944462F636F6D706F6E656E747359
:1021E0002F626F6F746C6F616465725F737570706E
:1021F0006F72742F7372632F626F6F746C6F616490
:1022000065725F7574696C6974792E6300000000F3
:10221000726F6D5F696E646578203D3D203200000D
:10222000492028256C75292025733A204C6F61645C
:102230006564206170702066726F6D2070617274C9
:102240006974696F6E206174206F666673657420AF
:102250003078256C780A0000452028256C752920E7
:1022600025733A204572726F7220696E2077726909
:1022700074655F6F746164617461206F7065726111
:1022800074696F6E2E20657272203D20307825783B
:102290000A000000492028256C75292025733A2062
:1022A0005365742061637475616C206F74615F7332
:1022B00065713D256C7520696E206F746164617471
:1022C000615B305D0A000000452028256C752920DF
:1022D00025733A206F74615F696E666F207061725A
:1022E000746974696F6E2073697A6520256C752036
:1022F000697320746F6F20736D616C6C20286D6939
:102300006E696D756D202564206279746573290A84
:1023100000000000452028256C75292025733A20EF
:10232000626F6F746C6F616465725F6D6D61702850
:102330003078256C782C203078256C7829206661DF
:10234000696C65640A0000007465737420617070C4
:102350000000000052462064617461007072696D73
:1023600061727920626F6F746C6F616465720000D6
:102370007072696D61727920706172746974696FCD
:102380006E5F7461626C6500756E6B6E6F776E0068
:10239000666163746F727920617070004F544120E0
:1023A00061707000556E6B6E6F776E20617070009B
:1023B0004F5441206461746100000000556E6B6EE3
:1023C0006F776E206461746100000000656675734C
:1023D000650000004E5653206B65797300000000C5
:1023E0005769466920646174610000006F74612060
:1023F000706172746974696F6E5F7461626C65009C
:102400007265636F7665727920626F6F746C6F614D
:10241000646572006F746120626F6F746C6F6164C9
:1024200065720000452028256C75292025733A2007
:10243000626F6F746C6F616465725F6D6D6170283F
:10244000307825782C203078257829206661696CD1
:1024500065640A00452028256C75292025733A20DB
:102460004661696C656420746F207665726966796F
:1024700020706172746974696F6E207461626C653A
:102480000A000000492028256C75292025733A2070
:10249000506172746974696F6E205461626C653A40
:1024A0000A000000492028256C75292025733A2050
:1024B0002323204C6162656C2020202020202020D6
:1024C00020202020557361676520202020202020B7
:1024D00020202054797065205354204F6666736520
:1024E000742020204C656E6774680A0049202825F6
:1024F0006C75292025733A2025326420252D31362C
:102500007320252D31367320253032782025303246
:1025100078202530386C78202530386C780A000017
:10252000492028256C75292025733A20456E6420A2
:102530006F6620706172746974696F6E2074616275
:102540006C650A00492028256C75292025733A20DE
:1025500044656661756C74696E6720746F2066618E
:1025600063746F727920696D6167650A000000000D
:10257000492028256C75292025733A204E6F206646
:102580006163746F727920696D6167652C20747264
:1025900079696E67204F544120300A004520282574
:1025A0006C75292025733A206F7461206461746111
:1025B00020706172746974696F6E20696E76616CE7
:1025C00069642C2066616C6C696E67206261636B64
:1025D00020746F20666163746F72790A00000000D6
:1025E000452028256C75292025733A206F746120B9
:1025F0006461746120706172746974696F6E2069BE
:102600006E76616C696420616E64206E6F20666115
:1026100063746F72792C2077696C6C2074727920E6
:10262000616C6C20706172746974696F6E730A00FA
:10263000452028256C75292025733A204E6F20628D
:102640006F6F7461626C6520746573742070617261
:10265000746974696F6E20696E207468652070619A
:1026600072746974696F6E207461626C650A00002F
:10267000572028256C75292025733A2046616C6CFB
:10268000696E67206261636B20746F207465737478
:1026900020617070206173206F6E6C7920626F6FA3
:1026A0007461626C6520706172746974696F6E0A1E
:1026B00000000000452028256C75292025733A204C
:1026C0004E6F20626F6F7461626C65206170702064
:1026D000706172746974696F6E7320696E207468BA
:1026E0006520706172746974696F6E207461626CC8
:1026F000650A0000666C6173685F706172747300D4
:10270000452028256C75292025733A207061727444
:102710006974696F6E20256420696E76616C6964E6
:10272000202D206F6666736574203078256C7820C4
:1027300073697A65203078256C78206578636565E3
:10274000647320666C6173682063686970207369C4
:102750007A65203078256C780A000000452028250D
:102760006C75292025733A204F6E6C79206F6E6549
:10277000204D443520636865636B73756D20697304
:1027800020616C6C6F7765640A0000004520282585
:102790006C75292025733A20496E636F72726563E8
:1027A00074204D443520636865636B73756D0A0052
:1027B000452028256C75292025733A207061727494
:1027C0006974696F6E20256420696E76616C696436
:1027D000206D61676963206E756D62657220307867
:1027E00025780A00452028256C75292025733A2074
:1027F000706172746974696F6E207461626C6520B7
:10280000686173206E6F207465726D696E617469A2
:102810006E6720656E7472792C206E6F74207661FD
:102820006C69640A00000000656E6431203E20730C
:1028300074617274310000002F2F4944462F636F7A
:102840006D706F6E656E74732F626F6F746C6F61F5
:102850006465725F737570706F72742F696E636CEC
:102860007564652F626F6F746C6F616465725F75FC
:1028700074696C2E68000000656E6432203E20731F
:1028800074617274320000006C6F616400000000BB
:102890006D6170006F7665726C61707320626F6F2E
:1028A000746C6F6164657220737461636B00000007
:1028B0006F7665726C61707320626F6F746C6F619C
:1028C00064657220646174610000000062616420CC
:1028D0006C6F616420616464726573732072616EF1
:1028E000676500006573705F696D61676500000072
:1028F000452028256C75292025733A20626F6F7456
:102900006C6F616465725F666C6173685F7265614C
:1029100064206661696C65642061742030782530BC
:10292000386C780A00000000452028256C752920A5
:1029300025733A20696E76616C6964207365676DF2
:10294000656E74206C656E677468203078256C78CD
:102950000A000000452028256C75292025733A209F
:102960004661696C656420746F20666574636820D5
:10297000617070206465736372697074696F6E2032
:10298000686561646572210A0000000049202825FD
:102990006C75292025733A204D4D5520706167656F
:1029A0002073697A65206D69736D617463682C208A
:1029B000636F6E666967757265643A203078257852
:1029C0002C20666F756E643A203078256C780A008A
:1029D000452028256C75292025733A205365676D9D
:1029E000656E74202564206C6F616420616464727C
:1029F0006573732030782530386C782C20646F65CF
:102A0000736E2774206D6174636820646174612043
:102A100030782530386C780A0000000049202825DD
:102A20006C75292025733A207365676D656E742077
:102A300025643A2070616464723D2530386C7820DA
:102A400076616464723D253038782073697A653D1B
:102A50002530356C7868202825366C75292025733B
:102A60000A0000006C6F61645F656E64203E206C3C
:102A70006F61645F61646472000000002F2F49443D
:102A8000462F636F6D706F6E656E74732F626F6F1C
:102A9000746C6F616465725F737570706F72742FA0
:102AA0007372632F6573705F696D6167655F666FD1
:102AB000726D61742E630000452028256C752920F5
:102AC00025733A205365676D656E74202564203048
:102AD00078253038782D30782530387820696E7632
:102AE000616C69643A2025730A000000452028259E
:102AF0006C75292025733A204E6F2066726565201B
:102B00004D4D552070616765732061726520617657
:102B100061696C61626C650A00000000452028252F
:102B20006C75292025733A20696D616765206F6691
:102B30006673657420686173207772617070656474
:102B40000A000000452028256C75292025733A20AD
:102B5000696D616765206174203078256C78206824
:102B6000617320696E76616C6964206D6167696369
:102B7000206279746520286E6F7468696E672066BC
:102B80006C617368656420686572653F290A00009E
:102B9000452028256C75292025733A20696D6167C9
:102BA00065206174203078256C78207365676D65C9
:102BB0006E7420636F756E7420256420657863657C
:102BC000656473206D61782025640A0045202825FE
:102BD0006C75292025733A20436865636B73756DA6
:102BE000206661696C65642E2043616C63756C615D
:102BF00074656420307825782072656164203078AF
:102C000025780A00452028256C75292025733A204F
:102C1000496D616765206C656E67746820256C7509
:102C200020646F65736E27742066697420696E2056
:102C3000706172746974696F6E206C656E67746818
:102C400020256C750A00000043616C63756C61742B
:102C50006564206861736800452028256C7529200B
:102C600025733A20496D6167652068617368206645
:102C700061696C6564202D20696D616765206973E9
:102C800020636F72727570740A0000004578706579
:102C9000637465642068617368000000572028250C
:102CA0006C75292025733A2049676E6F72696E67CB
:102CB00020696E76616C6964205348412D32353647
:102CC0002061732072756E6E696E67206F6E20468C
:102CD000504741202F20646F696E67206272696ED1
:102CE0006775700A0000000068616E646C652021E1
:102CF0003D204E554C4C00002F2F4944462F636F0A
:102D00006D706F6E656E74732F626F6F746C6F6130
:102D10006465725F737570706F72742F7372632F56
:102D2000626F6F746C6F616465725F7368612E634C
:102D300000000000626F6F742E657370333273335E
:102D400031000000572028256C75292025733A2072
:102D500050524F2043505520686173206265656E64
:102D6000207265736574206279205744542E0A00DE
:102D7000572028256C75292025733A204150502072
:102D800043505520686173206265656E20726573DB
:102D90006574206279205744542E0A00265F6273BE
:102DA000735F7374617274203C3D20265F6273739D
:102DB0005F656E64000000002F2F4944462F636F4B
:102DC0006D706F6E656E74732F626F6F746C6F6170
:102DD0006465725F737570706F72742F7372632F96
:102DE00065737033327333312F626F6F746C6F6140
:102DF0006465725F65737033327333312E63000024
:102E0000265F646174615F7374617274203C3D205D
:102E1000265F646174615F656E640000452028254B
:102E20006C75292025733A206661696C656420778A
:102E300068656E2072756E6E696E6720584D43200E
:102E40007374617274757020666C6F772C20726574
:102E5000626F6F74210A0000626F6F745F636F6D41
:102E60006D000000452028256C75292025733A2027
:102E700063686970207265766973696F6E20636834
:102E800065636B206661696C65642E20526571759F
:102E900069726564203E3D207625642E25642C20D1
:102EA000666F756E64207625642E25642E0A0000F8
:102EB000452028256C75292025733A2063686970A0
:102EC000207265766973696F6E20636865636B2035
:102ED0006661696C65642E205265717569726564FE
:102EE000203C3D207625642E25642C20666F756E6F
:102EF00064207625642E25642E0A000045202825AE
:102F00006C75292025733A20496D616765207265CB
:102F100071756972657320656675736520626C6B87
:102F200020726576203E3D2076256C752E256C75C9
:102F30002C2062757420636869702069732076257F
:102F40006C752E256C750A00452028256C75292086
:102F500025733A20496D61676520726571756972E4
:102F6000657320656675736520626C6B207265768B
:102F7000203C3D2076256C752E256C752C206275C5
:102F80007420636869702069732076256C752E251E
:102F90006C750A00452028256C75292025733A2078
:102FA0006D69736D6174636820636869702049445A
:102FB0002C2065787065637465642025642C206618
:102FC0006F756E642025640A0000000062756666F5
:102FD000657220213D204E554C4C00002F2F494456
:102FE000462F636F6D706F6E656E74732F626F6FB7
:102FF000746C6F616465725F737570706F72742F3B
:103000007372632F626F6F746C6F616465725F724D
:10301000616E646F6D2E6300626F6F746C6F6164BC
:1030200065725F666C6173680000000045202825AA
:103030006C75292025733A20747269656420746F59
:1030400020626F6F746C6F616465725F6D6D61702B
:103050002074776963650A00452028256C7529204E
:1030600025733A20626F6F746C6F616465725F6D77
:103070006D6170206578636573732073697A65206C
:10308000256C780A00000000452028256C75292051
:1030900025733A207661646472206E6F74207661C5
:1030A0006C69640A00000000452028256C75292001
:1030B00025733A20626F6F746C6F616465725F662E
:1030C0006C6173685F72656164207372635F6164D1
:1030D000647220307825782C2073697A65203078E6
:1030E0002578206F722064657374203078257820ED
:1030F0006E6F7420342D6279746520616C69676E1F
:1031000065640A006D6F73695F6C656E203C3D20DD
:10311000333200002F2F4944462F636F6D706F6E5E
:10312000656E74732F626F6F746C6F616465725F2C
:10313000737570706F72742F626F6F746C6F6164EF
:1031400065725F666C6173682F7372632F626F6F55
:10315000746C6F616465725F666C6173682E630086
:103160006D69736F5F6C656E203C3D2033320000EB
:103170006D69736F5F627974655F6E756D203C3D3C
:1031800020340000492028256C75292025733A2019
:10319000584D323551487878432073746172747594
:1031A0007020666C6F770A00452028256C752920F1
:1031B00025733A20584D4320666C61736820737400
:1031C0006172747570206661696C0A00452028255B
:1031D0006C75292025733A20626F6F746C6F61647F
:1031E00065725F666C6173685F777269746520648D
:1031F0006573745F616464722030782578206E6F27
:10320000742025642D6279746520616C69676E6530
:10321000640A0000452028256C75292025733A2072
:10322000626F6F746C6F616465725F666C61736806
:103230005F77726974652073697A652030782578C4
:10324000206E6F742025642D6279746520616C692D
:10325000676E65640A000000452028256C752920EA
:1032600025733A20626F6F746C6F616465725F667C
:103270006C6173685F777269746520737263203064
:10328000782578206E6F742034206279746520610F
:103290006C69676E65640A0034304D487A0000003E
:1032A00032362E374D487A0032304D487A000000D1
:1032B00038304D487A00000051494F00514F555465
:1032C0000000000044494F00444F555400000000E6
:1032D000464153542052454144000000534C4F573F
:1032E0002052454144000000314D4200324D420021
:1032F000344D4200384D420031364D42000000004E
:1033000033324D420000000036344D4200000000D0
:103310003132384D42000000492028256C752920A3
:1033200025733A205350492053706565642020204E
:103330002020203A2025730A00000000492028257B
:103340006C75292025733A20535049204D6F6465D0
:10335000202020202020203A2025730A0000000091
:10336000492028256C75292025733A20535049207F
:10337000466C6173682053697A65203A2025730A88
:1033800000000000452028256C75292025733A206F
:103390006661696C656420746F206C6F6164206283
:1033A0006F6F746C6F6164657220696D6167652011
:1033B000686561646572210A0000000049202825C3
:1033C0006C75292025733A206368697020726576D0
:1033D0006973696F6E3A207625642E25640A0000B1
:1033E000492028256C75292025733A206566757358
:1033F0006520626C6F636B207265766973696F6EAE
:103400003A207625642E25640A00000049202825EC
:103410006C75292025733A20456E61626C696E6770
:1034200020524E47206561726C7920656E74726F10
:10343000707920736F757263652E2E2E0A0000005E
:10344000492028256C75292025733A204553502D95
:1034500049444620257320326E6420737461676589
:1034600020626F6F746C6F616465720A0000000007
:10347000492028256C75292025733A20636F6D70CB
:10348000696C652074696D652025730A0000000071
:10349000492028256C75292025733A204D756C74B8
:1034A00069636F726520626F6F746C6F61646572BF
:1034B0000A0000007274635F636C6B5F696E69740D
:1034C00000000000452028256C75292025733A202E
:1034D000696E76616C69642043505520667265712F
:1034E00075656E63792076616C75650A0000000071
:1034F0006370755F667265715F6D687A203D3D200F
:10350000323430002F2F4944462F636F6D706F6E39
:10351000656E74732F6573705F68775F7375707015
:103520006F72742F706F72742F65737033327333D0
:10353000312F7274635F636C6B2E63007874616CFF
:103540005F667265715F6D687A203D3D20534F4321
:103550005F5854414C5F465245515F34304D000036
:103560007274635F636C6B00452028256C7529209D
:1035700025733A20496E76616C69642048505F5229
:103580004F4F545F434C4B0A00000000756E706152
:10359000636B5F6C6F61645F61707000626F6F740A
:1035A0006C6F616465725F7574696C5F7265676981
:1035B0006F6E735F6F7665726C61700076657269AD
:1035C00066795F6C6F61645F616464726573736573
:1035D00073000000626F6F746C6F616465725F737B
:1035E00068613235365F66696E6973680000000095
:1035F000626F6F746C6F616465725F73686132359E
:10360000365F646174610000626F6F746C6F616437
:1036100065725F696E697400626F6F746C6F61646C
:1036200065725F66696C6C5F72616E646F6D0000DD
:10363000626F6F746C6F616465725F666C617368F2
:103640005F726561645F736664700000626F6F74BF
:103650006C6F616465725F666C6173685F657865E5
:10366000637574655F636F6D6D616E645F636F6DCD
:103670006D6F6E007274635F636C6B5F7874616C06
:103680005F667265715F6765740000007274635FE6
:10369000636C6B5F6370755F667265715F746F5F9B
:1036A000706C6C5F3234305F6D687A00B0A2062FA8
:1036B000D80B00003745072F1305050C82803171A8
:1036C00006DF9307000089C797000000E7000000AD
:1036D000992A19C1EF40A03A9307000089C79700C3
:1036E0000000E70000001306000A81450808976003
:1036F0007900E780601D0808EF30B07F0DE1EF3002
:10370000C042AA853746072F3745072F13064616AE
:103710001305C51697607900E78040D165BF08089A
:10372000EF40C0249307D0F9E306F5FA2AC6014515
:1037300097607900E780C0CEB2450808EF40E035D9
:10374000B776582093860600BC460565B70500800D
:1037500093E71700BCC6B727002D93870700F843EF
:1037600013672700F8C3F84313671700F8C398439B
:10377000498F98C33717702013070700505F93874E
:1037800007084D8E50DFB04613660601B0C6F447F9
:1037900093E62600F4C7F44793E61600F4C794476F
:1037A000C98E94C73C43CD8F3CC382808280411137
:1037B00006C621E1E515254781476368B7029307EF
:1037C0007025B3D7B700858B8DC3EF300036AA853F
:1037D0003756072F3755072F130646DD130545DEED
:1037E00097607900E78080C48547B2403E854101FB
:1037F000828005478147E31AE5FEE5152547E36624
:10380000B7FE93077025B3D7B700E98FF9DFEF3024
:10381000C031AA853756072F3755072F130646DDC7
:10382000130505E175BF4111B727582006C622C40C
:1038300093870708D85393060020370604001377B0
:10384000F7DFD8D3373758201307070034C7D853CA
:10385000E576FD161377F7EFD8D3D8531377F7F73C
:10386000D8D3D853758F8566558FD8D3B77758205E
:1038700093870700B84313671700B8C3B7F7102042
:1038800093870700984F1367470098CFD84F136767
:103890004700D8CFB7A71020938707C0D843558FCC
:1038A000D8C3B727702093870700D84FB70600808A
:1038B000759BD8CFD843558FD8C33747D850B71743
:1038C0008020130717AA98D3D44FD18ED4CF23A02A
:1038D000070275223747072FB747072F130707FB44
:1038E0009387070C63F2E702B756072F3756072F67
:1038F0009386C6E31306866A9305E0073755072FBC
:10390000130595E8EF4020363747072FB747072FB5
:103910001307070C9387C71163FDE700B756072FFE
:103920003756072F938606EA1306866A9305F00733
:10393000F1B70921992899256523192DEF20707772
:10394000EF20906A2A840DC5EF30201EAA853756D5
:10395000072F3755072F130646DD1305C5EB976074
:103960007900E780A0ACB2402285224441018280E8
:10397000C5262A846DF921292A8475F581222A8495
:103980007DF19D2E7921052BF9BF4111014506C618
:1039900022C497607900E780A0AE01459760790066
:1039A000E78000A8B1476303F506EF500076156481
:1039B000937775001304840213954701498C1357BC
:1039C00044411D8B89466313D7008147370790FF19
:1039D0007D17D207798C5D8CEF50207BB706F4FF02
:1039E00013773500FD1693172701758C37060800ED
:1039F0005D8C6393C700054713152701758CB725A8
:103A0000E315418D93850540BD2D09A8EF50302663
:103A1000B76762029387F79FE3F9A7F8B71780208B
:103A2000D457370700C07D17F98ED4D7B72670203A
:103A3000885E370600809305F6FF6D8D88DED457CB
:103A4000B2402244ED8ED4D7B747702093874719F0
:103A50009443ED8E94C39443758F98C3B717802019
:103A6000985BB7060040558F98DB37277020545F6E
:103A7000D18E54DF985B518F98DB41018280B7670C
:103A800070209306F00F1387470794C39107E39EB6
:103A9000E7FEB75750209306F00F1387C70794C36C
:103AA0009107E39EE7FEB7A758209306F00F138710
:103AB000C70994C39107E39EE7FE7DA3011106CEDB
:103AC00022CC4AC826CAEF2070620545EF20106854
:103AD000EF20D05F8146014681451305A007EF2006
:103AE000B0333709082F032509FE3744072F130485
:103AF000440A97607900E780E0A3EF20D032834743
:103B000034000547BD8B638EE7103D476380E712A5
:103B100063830712B756072F9386863436C6EF3075
:103B2000C000B246AA85B754072F3755072F138612
:103B300044DD1305853B97607900E780208FEF30E7
:103B4000A05989476309F51063ECA70E630A0510B5
:103B5000B756072F9386C63536C6EF20107DB2467E
:103B6000AA853755072F138644DD1305C53D976099
:103B70007900E780A08B8347340011479183638EDF
:103B8000E710636EF70E0947638EE7100D476380F9
:103B9000E712639D0712B756072F9386863836C6FD
:103BA000EF20B078B246AA853755072F138644DD3B
:103BB0001305054097607900E780408789450545F2
:103BC000EF502010834734001147C1459183638F24
:103BD000E7006362F7108946BA856389D7000D470D
:103BE000A1456385E700B335F0008505032509FE8F
:103BF00041669307F6FF0841130700108566D2055A
:103C000097607900E780009805458945EF5060107E
:103C1000EF30C04BF2406244D24442490145056155
:103C20008280B756072F93860634CDBDB756072F2F
:103C300093860635E5B5B756072F93868633F9BDCB
:103C40008D476304F50291476306F502B756072FC7
:103C50009386C63711B7B756072F93864636EDBD04
:103C6000B756072F93868635C5BDB756072F93865F
:103C70008636DDB5B756072F93860637F1BD19474F
:103C8000638CE7021D47638EE70215476390E704E4
:103C9000B756072F9386063A19B7B756072F93865C
:103CA0008639F5BDB756072F93860639CDBDB75671
:103CB000072F93864639E5B5B756072F9386863A80
:103CC000F9BDB756072F9386063BD1BDB756072FD0
:103CD0009386C638E9B5194793050004E388E7F0F1
:103CE0001D4793050008E383E7F015478945E39FE7
:103CF000E7EE93050002DDBD4111014506C622C471
:103D000097507900E780C071AA8501454D342A8417
:103D1000054597507900E780A070AA850545413C8C
:103D200011E009C501455934054549342244B240E2
:103D3000410139B43745072F3746072F130505FBD7
:103D40001306060C098E8145176379006700C3B717
:103D5000411106C61529B745072F8546614693854B
:103D6000450AEF3020180DC1EF20305CAA85374698
:103D7000072F3755072F1306461613054542975050
:103D80007900E780A06A7D55B240410182804111EF
:103D900006C622C426C24AC0EF20704F1304400654
:103DA000AA84EF20905833F78402AA853755072F4D
:103DB0001305C545B3D68402B744072F13864416AE
:103DC00097507900E7808066EF20504E2A89EF20D7
:103DD000D05533778902AA853755072F13864416A5
:103DE00013050548B356890297507900E7800064AF
:103DF0003745072F81451305450AEF20F070B24083
:103E000022443335A000924402493305A0404101C9
:103E100082800111B7178020938707000A8506CE9C
:103E20003EC222CC02C097607900E7802095814590
:103E30000A8597607900E780E0950A8597607900A8
:103E4000E78000948146014681450A859526EF501A
:103E5000802D2A840A8597607900E78020921316C6
:103E600034002296914681450A85852E0A85976001
:103E70007900E78020910A8597607900E78040907B
:103E800085473EC4B70758209387070028003EC6E1
:103E900097607900E780808E2800814597607900DF
:103EA000E780408F280097607900E780608DF240BE
:103EB000624405618280411106C6EF201047AA8541
:103EC0003746072F3755072F130646161305C54AE1
:103ED00097507900E7808055B24041016F30A030A3
:103EE000411106C622C426C2EFF0CFFCAA84EF20FF
:103EF000D043AA853744072F3755072F9386840070
:103F0000130644161305054E97507900E7800052BA
:103F1000EF20B041AA853755072F13064416938624
:103F200084021305055197507900E7802050EF2057
:103F3000D03F130644162244B2409244AA85375516
:103F4000072F130505534101175379006700034EEE
:103F5000797122D402CA0944480806D6230A81008E
:103F600002CC02CEEF40B045C167680022C63EC811
:103F7000EF40301DB250225445618280011106CEBF
:103F800022CC26CA97507900E780004B0145975014
:103F90007900E780E04EEF50804DEF20902BB7473F
:103FA0000F00938707243304F502B7A43820B7071E
:103FB000812093840400938707006394F400EF301A
:103FC000704C37451E1C1305F5DF229537461E1C25
:103FD000130606E08146B335850097607900E780D7
:103FE00020E19307F5FF1307F00F636AF706716787
:103FF000130707203307A702120493F7F70FA2074E
:104000003354E402D84813160401935646017D76D2
:10401000718F558FD8C8D848B70610FFFD163D8858
:10402000758F5204418FB7765820D8C89386060002
:1040300003A7860841761306F60F3AC63247718FFA
:10404000D98F3EC6B2471387040823A4F6081C4F35
:1040500093E717001CCF83A78409858BEDFFF240FF
:104060006244D24405618280735070BC735070BD4D
:10407000B7078014FD17739077BDB70700E0F50709
:10408000739077BC8280397193D7350022DC93F727
:10409000F70F2A8401479D46394681451305D0060E
:1040A00006DE26DA4AD8EF5060531D47BA868547A8
:1040B000154681451305D006EF5040521D47BA867C
:1040C0003A86854781451305D006EF5020510947B0
:1040D000BA868147354681451305D006EF5000501A
:1040E0000D4781458147BA8635461305D006EF5006
:1040F000E04E0A8593548400EF50A02F93F4F43FD0
:104100002C0826855249EF50200A15E1EF20F021B6
:10411000AA853756072F3755072F1306465513051F
:10412000455697507900E7806030EF30B035280869
:10413000EF508010732500C0B33595024A86814642
:104140003305950297607900E78080CA731005B047
:10415000935744419D8B05476395E7000545EF4024
:1041600050710545EF409073135524010D89EF40C0
:10417000D07D135544011D89EF401075F2506254F3
:10418000D254425921618280411122C43744072F01
:104190000325841106C6FD576318F5009760790062
:1041A000E78000E5232CA410B24022444101828024
:1041B00001112AC606CE97507900E780605B324530
:1041C0001C4189CB5841B747D850938717AA7CD355
:1041D00023220706F24005618280011122CC2AC603
:1041E00006CE2EC4328436C297507900E780C0587C
:1041F00032451C41B9EB9246A24509475C419D8A74
:104200006389E504636DB70085C19843370600F202
:104210007D16E606718F558F98C380C73DA00D4768
:104220006383E504EF3010269843370600907D162F
:10423000718FF206558F98C337577120585B4D83A5
:10424000058B05073356E400D0C3F2406244056194
:1042500082809843370640FE7D16DA06718F558FAF
:1042600098C3C0C7DDB798433706C8FF7D16CE0692
:10427000718F558F98C380CBC9BF0000000000002C
:10428000000000000000000000000000B0CF062F7A
:10429000EC3200009357054193F7F70F1307000224
:1042A0006391E704135785001377F70F9306000413
:1042B0009377F50F6316D700B51713B5E700828023
:1042C000930610046316D700A51713B5A7008280C4
:1042D0009306000501456317D700AD1713B52700F6
:1042E00082800145828039713EC606DE22DC26DAF4
:1042F0004AD84ED652D456D25AD09307000263F20F
:10430000E702B756072F3756072F9386461A13062C
:10431000C66E930530323755072F1305D51EEF10A3
:104320009002C28463FD0701B756072F3756072F47
:10433000938606201306C66E93054032E9BF3714F4
:10434000502013040400832A84003AC4032A840101
:1043500036C28329C4012EC0032904022324040089
:104360001C44328B37062000D18F1CC41C4C3706EE
:104370000080D18F1CCC1C5041763ECAD247F18FB1
:10438000C98F3ECAD247370600701CD01C503ECCA5
:10439000E24792079183D18F3ECCE2471CD0C12BDC
:1043A00082459246224711C9505C938705FE93B718
:1043B00017008607759AD18F5CDC5C4C1386F5FF7D
:1043C0006A069A079983D18F5CCC1C4C370600C0D3
:1043D000B335B0007D16FA05F18FCD8F1CCC2322AA
:1043E000640181C8B707082F83A707FE83C7970119
:1043F000BE961C4CB70500E03336D000FD1576069E
:10440000ED8FD18F1CCC89CA5C4CFD1693F6F60358
:1044100093F707FCD58F5CCC1C4CB70500F8B3367E
:10442000E000FD151396B601ED8FD18F1CCC5C50CA
:10443000B306D74093F6F63F93F707C0D58F1356D0
:1044400037005CD09307360089830547639BE700FC
:104450006C00680802CE97307900E7802035F2477B
:104460003CCC184C370600F0B33790007D1693967D
:10447000C701718F558F18CC1854B387F44093F748
:10448000F73F137707C0D98F1CD41C4037070400AF
:10449000D98F1CC01C40FDFF23245401232C440150
:1044A000232E340113D634002320240302C893772B
:1044B00036009DEFB7155020938585050808973085
:1044C0007900E780A02E9307000242456388F4003C
:1044D000FD57B397970093C7F7FF7D8DF250625455
:1044E000D2544259B259225A925A025B21618280B7
:1044F0003C4C6C083ECED9B7AE8732873688014631
:1045000081468145CDB301114AC83709082F0325DB
:1045100009FE06CE22CC26CA4EC652C456C29730D9
:104520007900E78020EF832709FEB7063EFF984316
:10453000B707FF00F98FBE9689C6B70663FFB69727
:10454000D9EBA1460146814515457D371314050178
:104550001375C50B418035C5137434F44204418092
:10456000A14A81448149032509FE97307900E780FB
:1045700060EA8146014681451945BD3F8146568620
:10458000A2850545953F63839902032509FE97306F
:104590007900E78020E88146014681451945A93F19
:1045A00081462146A68513051003B937032509FE68
:1045B00097307900E78000E6814601468145114544
:1045C000253FF2406244D2444249B249224A924ACB
:1045D000014505618280B7070001938707F0F98FD5
:1045E000B746C8006391D7041377F70FD54763FC2C
:1045F000E702A146014681451545FD3D131A050117
:10460000A1460146814513055003FD35135A0A01A1
:104610009379F50F93742500A14A0144E3158AF4B8
:10462000E39599F679BFA146014681451545E935DF
:10463000AA84A1460146814513055003753D131414
:104640008500458C131A0401135A0A0113740420BF
:10465000C14A81448149D9B7914763F4B702B7563B
:10466000072F3756072F3755072F411193860621FD
:104670001306066D9305F0351305D51E06C6EF101B
:10468000804C8E052A8613F8850F81470147A14685
:10469000E1451305A00581B94111E1460146814577
:1046A0001305F00906C6893D9377F50F13570501E9
:1046B0001377F70FC207B240D98F4167130707F08E
:1046C000798D5D8D41018280411122C43704082F0C
:1046D000832704FE06C626C288434AC0653E01C938
:1046E0000145B240224492440249410182808545FD
:1046F00041459D371375F50F93070002E312F5FE50
:104700002926AA85B754072F3755072F1386840B00
:104710001305452297307900E78040BF8146014666
:1047200081451305900BC93B814601468145130520
:104730009007D9338146014681451305F00F6D3B43
:104740001305007D97307900E780C0BD81460146A2
:1047500081451305B00A4D33514597307900E78004
:1047600060BC032904FE0D3F832704FE2320A9001B
:1047700088430D3635F5512CAA853755072F1386FA
:10478000840B1305852497307900E78020B87D5588
:1047900089BF4111B707082F22C403A407FE06C62C
:1047A000E53DB24008C0224441018280B707502055
:1047B000984F1367070C98CFB7075020984B137783
:1047C000F7C198CB984B019B98CB8280011189450A
:1047D000054506CEEF20E03CB777582093870700C9
:1047E000F85381769386F61F3AC6324789450545C8
:1047F000758F8566938606A0558F3AC63247F8D3E3
:10480000F85313670710F8D3F85313671700F8D35A
:10481000F85313670708F8D3F8531377F7F91367BA
:104820000702F8D3F24005616F20A03C411122C479
:10483000AA852A847D4506C697307900E780C01E88
:10484000A2856D4597307900E780001EA28513058B
:10485000000297307900E780201DA28569459730D6
:104860007900E780601CA285794597307900E78060
:10487000A01BA2852244B240714541011733790043
:104880006700831AA1A2011106CE11EA8546368778
:10489000FD159307E00F63F7B700EF10A02C8D46CE
:1048A0000947FDB7B777582093870700D04393F5A2
:1048B000F50F7D1732C63246FD1693F6F60F1376C6
:1048C00006F04D8E32C63246F1759385F57FD0C322
:1048D000D0431376F68FD0C3D0436D8ED0C39047AC
:1048E000937517001377F70F799A4D8E90C7D047BD
:1048F00032C42246137606F0D18E36C4A246D4C7FF
:10490000944B36C2924693F606F0558F3AC2124740
:1049100098CB9843719B98C3D84B13671700D8CB9B
:10492000D84B058B75FFF24005611733790067009E
:10493000E39FB717702093870700A847930780026B
:104940001375F5076304F502B756072F3756072F7F
:104950003755072F41119386C65D1306467193059F
:1049600000201305255D06C6EF10E01D8280411171
:1049700006C622C49D282A84492093074006B3070F
:10498000F402B240224441013E95828037577120A3
:10499000130707007C4F684F13074006F5838D8B84
:1049A000B387E70269811D893E958280B7577120E0
:1049B00093870700E84F618105898280B75771208E
:1049C00093870700E84F658105898280B75771207A
:1049D00093870700DC5B0145D5839D8B91E3828043
:1049E00013F71700398D8583D5BFB757712093878B
:1049F0000700E84F59810D898280B757712093874E
:104A00000700E84F49813D898280411106C622C4D2
:104A1000732400C097307900E78000919307803EAF
:104A20003305F502B2403355A4022244410182808D
:104A300045C5011126CAAA8422CC4AC82EC606CE74
:104A40003D3703D9F400B2452A8463712505753FCB
:104A5000930640063378D402AA853756072F375578
:104A6000072F130686EF130545F0B357D4023377AB
:104A7000D902B356D90297307900E78020890145E1
:104A8000F2406244D24442490561828099E1054581
:104A9000C5BF83D41401C167F9171387F4FF420718
:104AA0004183E376F7FEE3F4A4FE09376DF1B13FED
:104AB00093064006AA853756072F3755072F3378B8
:104AC000D402130686EF130505F5B357D40233F766
:104AD000D402B3D6D40245B701458280AA851146D7
:104AE0007D5517337900670063F81841FD57630758
:104AF000F700084D75151335250082800545828025
:104B0000411126C206C622C4AA84C53709EDC04C8D
:104B10002685E9373305A44013351500B2402244F9
:104B20009244410182800145D5BF011122CC26CAA1
:104B30004AC84EC652C456C2AA891309400606CEB8
:104B40002E84A935B3572503AA843E8AB37725035B
:104B5000BE8AC1778507CE97D1C76375350975358C
:104B600033F72903AA853756072F3755072F56885D
:104B7000D287130686EF1305C5F9B3D629037D59ED
:104B800097207900E7808078C1778507A29733372F
:104B90008000B337F000F98F85CF637B9402393DF5
:104BA00005E9A535930640063377D402AA85375622
:104BB000072F3755072F5688D287130686EF130520
:104BC00085FE7D59B356D40297207900E7800074A2
:104BD000F2406244D244B249224A924A4A8542494A
:104BE0000561828001494DB78357C500411106C652
:104BF00022C493060002638BD7022A8439350357F7
:104C0000C400AA853756072F3755072F9306000291
:104C1000130686EF1305450397207900E780006FA0
:104C2000FD57B24022443E8541018280854763960C
:104C3000F500FD3B9307F5FFEDB78147FDF1D5BFCB
:104C40008DCD05CD03C7050083C7150001C781EBD6
:104C5000014582803335F00006057D1582801C41B8
:104C600018513E8509C663F6E7003A8519A0E36E40
:104C7000F7FE1D8D3335A00082807D5582800DC5E5
:104C8000011106CE22CC2A84A53D2306A1001305DE
:104C90000402BD35A306A1006C00228505464D37F0
:104CA000F2406244056182807D5582808547630DB4
:104CB000F50009479967BA976306E5003335A00008
:104CC000B307A0403E85828099678507E5BF13053D
:104CD0000040828079714AD03749072F8347C9FB4A
:104CE00006D622D426D285C30D33AA853756072F80
:104CF0003755072F1306860B1305C50C972079002F
:104D0000E780C0602DA0B7070004AE8463F8B70247
:104D1000ED39AA853756072F3755072FA686130674
:104D2000860B1305850F97207900E780205E0145EB
:104D3000B25022549254025945618280C176E98E64
:104D40003304D540B304B40002CE1387F4FF636D7F
:104D5000F7006539AA853756072F3755072F1306F1
:104D6000860B1305851259BF8945054536C6EF10D8
:104D70005063B2467C0826873706004085450145CA
:104D8000EF10D03505458945EF10B0668547230EF5
:104D9000F9FAB70700403305F40059BF411122C4A6
:104DA0003744072F8347C4FB06C689CB8945054591
:104DB000EF10305FEF109022230E04FAB24022442D
:104DC000410182805D71A6C2B364C500CD8CCAC0AA
:104DD00052DC86C6A2C44EDE56DA5AD85ED662D4FB
:104DE00066D28D882A892E8AB1C032C639393247B7
:104DF000AA853756072F3755072FD287CA8613063D
:104E0000860B1305851497207900E7802050FD5408
:104E1000B64026440649F259625AD25A425BB25B06
:104E2000225C925C2685964461618280B5C6719A47
:104E3000C1673304A600AA89C17B374B072F938C27
:104E4000F7FF7D5CE38689FC83274B11B3FA790178
:104E50006386FA0289450545EF10B0548545014542
:104E60007C086687D6863706FF4302CEEF101027F0
:104E700089450545232A5B11EF10B057B706FF435C
:104E8000CE96B38656419842B3872941D29798C3AC
:104E9000232A8B1191097DB78945054532C6EF104C
:104EA00050503246D2854A8597207900E780805A53
:104EB0002A8489450545EF10D05322852644B64003
:104EC00096440649F259625AD25A425BB25B225C5E
:104ED000925C6161E1BB411106C697207900E780D1
:104EE000A056B2404101D9B313B716003307E040D2
:104EF000119B13070702B377E502011122CC06CEFE
:104F00002A849DC73AC211361247AA853756072F01
:104F10003755072FA2861306860B1305C526972043
:104F20007900E780A03E7D55F240624405618280B1
:104F3000B377E60285C332C43AC2C13CAA8537566C
:104F4000072F3755072F1247A2461306860B130566
:104F5000452BF1B793F7350095C32EC27D349246A9
:104F6000AA853756072F3755072F1306860B1305CB
:104F7000852F97207900E780603975B736C632C42F
:104F80002EC2EFF04FD84DF1B2469245224622850F
:104F900089CA97207900E78020486244F240056181
:104FA00031B397207900E780A04AC5BF814601460A
:104FB000814511456FF04FD4B70750209387070004
:104FC0009C47014513977700634607021397B70084
:104FD000054563410702139787000945634C0700A5
:104FE000139717010D45634707000967F98F13B53C
:104FF000170011058280011106CE05C5B746812034
:105000000566B70780200147938686041306F63F9E
:1050100093870700370300086315B702F240056164
:105020008280B756072F3756072F3755072F93869D
:10503000C6061306866B9305D0021305450AEF00DA
:10504000903083A80600732E00C003A80600B3C8E2
:105050000801732800C03308C841E37806FF03A89D
:1050600007013368680023A8070103A8470142C469
:10507000224803AE87013348180172C6324E330E00
:10508000E50023000E01050741BFB7478120938744
:1050900007009843370600F07D160607058398C37E
:1050A0009443370700C07D17F98E94C383A6C70FBA
:1050B000F18E23AED70EB707712093870700D45F18
:1050C000758FD8DF8280B707712093870700D85F7C
:1050D00037060040B7060080518FD8DFD85F938530
:1050E000F6FF558FD8DFD85F6D8FD8DFB7478120A7
:1050F0009387070003A7C70FB70500104D8F23AE96
:10510000E70E9843558F98C39843518F98C3828078
:10511000011122CC26CA06CEF957B744072F3744CF
:10512000072F6308F502FD576311F504EFF0FF8DBB
:10513000AA853745072F938684191306441613054D
:10514000C51A6244F240D244056117237900670012
:10515000E31BEFF09F8BAA853745072F93868419B1
:10516000130644161305451DE9BF2AC6EFF0FF8953
:10517000130644166244B246F24013878419D2449F
:10518000AA853745072F13050520056117237900E8
:105190006700C31709ED8589B707002C984393C5AD
:1051A000F5FFF98D8CC3D843799BD8C382808605DF
:1051B0008989DDB71D7186CEA6CACEC6AA84A2CCC7
:1051C000CAC8D2C4D6C2DAC05EDE62DC66DAEFF0EC
:1051D000DF83AA853746072F3745072F1306461664
:1051E0001305C52297207900E7804012793D0145DB
:1051F000EF007019014842CE42D242D603C8540093
:1052000081473ECC3ED03ED41386C4091387C401E7
:1052100081468149B70800EC37030040054E930EE4
:105220008101130F0102930F810263C006038947B6
:105230006388F906B746072F3756072F9386062B44
:105240001306C6629305A03415A00843B377150171
:105250006394670463523E03B746072F3756072F00
:10526000938606261306C662930530343745072F0A
:1052700013058529EF00300D83230600939729003D
:10528000B382D70123A07200B382E70123A0A2005A
:105290004843FE97850988C385061106210771B723
:1052A00003AA8400CE8583A444100545E24B025C2A
:1052B0002259F24A125B3254EF10B00E3707040045
:1052C00081476380E402370702008547638BE4006F
:1052D0004167CE876387E40021678D476383E400DD
:1052E0008147B70650209386463898428E07B30C04
:1052F00090401D9BD98F9CC2EF10404EB3799C010A
:10530000B70700B002CACE9737070004B3F69B0177
:10531000629963ECE7005C08330739414E868545A6
:10532000014536C6EF10805BB2463706004426873B
:105330005C08058E85450145EF10405AB3749B010A
:10534000B70700B0A697370700045A9463ECE7004C
:105350005C0833079440B3F69A01268685450145DB
:10536000EF10C057B70700407D1963E0F902B70797
:105370000044636EF900B70700546378F900B7077B
:105380000050FD17294B63E53701EF00A07D254B49
:10539000DA8501450135B70700407D14E3E7F4FEE7
:1053A000B7070044636EF404B7070050FD17E3FE2F
:1053B00097FCB7070054A94AE379F4FCD685014568
:1053C000D13BB7070050FD1763E63701B70700442C
:1053D000E37DF9FADA850545753BB7070050FD17FF
:1053E00063E69700B7070044E371F4FAD6850545F4
:1053F000553389450545EF10C07FEF002074029AB0
:10540000A54A6DBF7D57AA876395E5000845CC473F
:10541000828079576395E5000849CC4B82803D47EF
:10542000636DB7000327850963D9E5008D058E05F7
:10543000B307B5008843CC43828081450145828013
:10544000584101EB014582800145B24022444101AF
:105450008280411122C406C62A84EF10800C6DF5AB
:10546000EFF0AFDA1440AA853746072F3745072FEC
:10547000130646161305052C97207900E78000E9EE
:105480000545E1B763C5050AB747072F83C707FB83
:10549000D9CF3971714622DC26DA2E84AA8493058D
:1054A000F00F480806DE4AD897207900E780C02F21
:1054B00093051400894708082EC83ED4EFF00FE288
:1054C0002AD6EFF02FBC03A904002AC6B744072F41
:1054D0001355C90009342A8409E9B24613060002AB
:1054E0000C084A8511342A8419CDEFF00FD2AA8511
:1054F0003745072FA286138644161305852F97205C
:105500007900E780A0E0EFF04FD0C246AA8537458A
:10551000072F138644161305453397207900E7803B
:10552000E0DEF2506254D25442592161828082807E
:10553000411122C42A84084106C626C24AC059C560
:105540002E894C40096763FAE502EFF00FCC544016
:10555000AA853746072F3745072F096713064616D2
:105560001305853697207900E78040DA7D55B240F3
:1055700022449244024941018280EFF0AFF5AA84AF
:1055800019EDEFF08FC8AA853746072F3745072F4B
:1055900058401440130646161305453BE1B7AA854B
:1055A000130600024A8597207900E7802020130621
:1055B00000028565A6953305C90097207900E7802C
:1055C000E01E2685EFF08FFD014555B713055010FD
:1055D00079BF1D718565A6CA938505C0AA8421651A
:1055E000A2CC86CECAC8CEC6D2C4D6C2DAC05EDECF
:1055F00062DC66DAEFF00FEE3744072F21E1EFF0BF
:10560000CFC0AA8505673745072F130707C0A166D6
:10561000130644161305454C97207900E78000CF08
:105620000145F6406644D6444649B649264A964A5C
:10563000064BF25B625CD25C25618280701085450E
:105640002A89EF00906EAA8919CDEFF00FBCAA85C8
:105650003745072F130644161305454F9720790049
:10566000E780C0CA75BFEFF04FBAAA853745072F4C
:10567000130644161305455297207900E78000C9A8
:10568000EFF0AFB8AA853745072F13064416130568
:10569000455497207900E78060C7B747072F130C60
:1056A000C900094A854A0D4B930B0002938CC758D9
:1056B000B25763C4F9024A85EFF04FEEEFF0EFB452
:1056C000AA853745072F130644161305055C972056
:1056D0007900E780A0C30545A9B703476CFF630EB7
:1056E000470F6362EA0483477CFF45EBA1C7638BE6
:1056F000770913F707FFC1466317D71093F6F70032
:1057000089068327CCFF8E06A69603278CFFDCC66E
:1057100083A7840998C6850723ACF408B747072FE9
:105720009387C74315A06306670DB747072F938775
:10573000874219A88327CCFF03278CFFDCC4B74717
:10574000072F98C4938707433ECEEFF00FAC032793
:10575000CCFF83487CFF03486CFF3AC203278CFFD1
:10576000F2473746072FAA853AC0CE8662871306CE
:105770004616668597207900E78040B98509130CA5
:105780000C023DB78327CCFF03278CFFDCC8B7474B
:10579000072F98C89387873E45BF638B4707636889
:1057A000FA008DC3B747072F9387473F71BF114753
:1057B0006385E70615476387E706B747072F938793
:1057C000C74559B78327CCFF03278CFFDCC0B747F9
:1057D000072F98C09387074585BF83477CFF638861
:1057E0005705638B4705B1F3B747072F9387C73F2B
:1057F000A1BF83477CFFB1C7E39957F3B747072F92
:105800009387C74891B7B747072F938747442DBF62
:10581000B747072F9387074805BFB747072F9387D9
:1058200047471DB7B747072F9387C74631BFB747CD
:10583000072F9387474B09BFB747072F9387074A1F
:1058400021B7B747072F93870741FDBD1C415D7105
:1058500086C6A2C4A6C2CAC0B5CB8A85AA84C939E5
:105860002A84631B050E3749072F0A85230809FA86
:10587000EFF0AFA71DE583A7840985CB0A85EFF07C
:105880000FC0FD576302F50A16059307050433851B
:105890002700032405FC83A784097D143374F402D4
:1058A0003DA00810EFF06FA479D59C44B744072FB2
:1058B00095C7EFF08F95AA853745072F13864416B5
:1058C0001305455E97207900E78040A47D54B640DB
:1058D000228526449644064961618280EFF0EF926A
:1058E000AA853745072F13864416130505619720AF
:1058F0007900E780A0A10247FD576310F702025725
:10590000FD576308F700F2540810EFF02F9DE38075
:10591000A4FC85472308F9FA5DBFF2440A85EFF03D
:10592000EF9BE39EA4FC65B79C443744072F99CBBB
:10593000EFF0AF8DAA853745072F130644161305E0
:10594000C56349B7EFF06F8CAA853745072F13065B
:10595000441613050568BDB71304D0F98DBF411176
:1059600006C6E92A1305803E97207900E780809BD0
:1059700097207900E78080A001A06971232481121B
:10598000232291122E84AA841306801081452800B8
:105990002326111223202113232E31119720790061
:1059A000E78080E0F9576300F4042289FD596355CC
:1059B000390783A7840905046346F4082C0013857E
:1059C0000401BD3C3744072F45C1EFF00F84AA8581
:1059D0003745072F130644161305057197207900E4
:1059E000E780C09239A02C0013850401EFF05FA579
:1059F00001C52800EFF00FFCEFF02F81AA85374694
:105A0000072F3745072F130646161305056D9720F8
:105A10007900E780A08FA137CA852685EFF09F9E89
:105A20002AC02EC291CD2C000A85EFF07FA111C5AE
:105A3000CA852685EFF01FA56DBF4A85EFF04FEDB3
:105A40007D19B5B7A2852685EFF0DF9B2AC02EC24F
:105A5000ADD12C000A85EFF0BF9E19C1A285D1BF40
:105A60002285EFF0EFEAB1B7EFE03FFAAA853745BC
:105A7000072F130644161305457597207900E78014
:105A8000E088130680108145280097207900E78080
:105A9000A0D151B78280411106C622C49720790057
:105AA000E78080FF3744072F1305C4FC8945972002
:105AB0007900E78020FFB2401305C4FC2244410175
:105AC00082800DE1B756072F3756072F3755072F1E
:105AD0004111938686D813060669FD45130505DC3A
:105AE00006C695203745072F81461305C5FC1723A9
:105AF00079006700E3FB15E1B756072F3756072FEC
:105B00003755072F4111938686D8130646679305AC
:105B10005002130505DC06C63D203745072F89E9ED
:105B20001306800D1305C5FC172379006700C3C752
:105B30001305C5FC172379006700C3F70145172338
:105B400079006700A3813687AE86B2852A863745FD
:105B5000072F41111305C51106C697107900E7807C
:105B6000E07A01A03745072F41119385D0FF130537
:105B7000051406C697107900E7804079EF10301FB2
:105B800011C1029001A082808967630BF502B747BB
:105B9000072F03A7071185476305A702411122C4F8
:105BA00006C62A84EF10800C814711C5EF10A00AA9
:105BB000018D93371500B24022443E854101828019
:105BC00085473E858280411106C66340B502B756BF
:105BD000072F3756072F9386868C1306C663F94521
:105BE0003755072F13054590B93F634CD600B7567C
:105BF000072F3756072F938686911306C663FD45F8
:105C0000C5B7B2403325D500B325B6006D8D41012F
:105C10008280411122C42A84014506C6971079006A
:105C2000E780006EB70700ECE18F370700C0BA9736
:105C300095C7B70700106363F40215478547631AD9
:105C4000E500B70700D23E94A1673334F4009347D0
:105C50001400B24022443E85410182808147D5BF75
:105C600019718327C50DE6CABA8C1841A2DCA6DAE1
:105C7000BA97D6D2DAD0E2CCEAC886DECAD8CED677
:105C8000D2D4DECEEEC62A842E8D32D636CC3ED08D
:105C9000130CC509130BC501BE8A81448347540008
:105CA00063C7F4021C4063FCFA48631B0D0AEFE073
:105CB000DFD5AA853756072F3755072F1306469885
:105CC0001305C5BB97107900E780406451A885464D
:105CD0002146DA855685EFF0EF8EAA8931C1EFE0D3
:105CE000DFD2AA853756072F3755072FD6861306DA
:105CF00046981305059997107900E7802061CE87B3
:105D0000F6506654D6544659B659265A965A065BEA
:105D1000F64B664CD64C464DB64D3E8509618280A9
:105D2000E24789C72146DA853E85613B032A4B005D
:105D300093773A008DCB63150D0289048E04EFE052
:105D4000DFCCA2949448AA853756072F3755072FE2
:105D5000130646981305859C97107900E780005B31
:105D60008967890771BF03290B00938B8A00CDE0F7
:105D70000840193D7DE1854611466C185E8502DCC0
:105D800002DEEFF02F84AA8725FD854611462C18E8
:105D90001385CA0BEFF00F83AA873DF18347810378
:105DA000F2563757CDAB3EDC130727436383E60239
:105DB000EFE0BFC5AA853756072F3755072F1306C3
:105DC00046981305459F97107900E7802054FD57AA
:105DD00005BF89E7C1672322F4101DA805473317C3
:105DE000F7002322E41041476384E702EFE0FFC19C
:105DF00003274410AA853756072F3755072FC1664A
:105E0000130646981305C5A297107900E780005045
:105E1000B70700ECB37AF900B70700406393FA04C0
:105E20008327441033F7FB02B377F902630BF702C1
:105E3000E3180DF2EFE07FBDAA853756072F3755DF
:105E4000072FDE874A87A68613064698130505A7FF
:105E500097107900E780804B21B7084035334DD942
:105E600095BFB2574ACE814D89C74A855D33AA890D
:105E7000AA8D63110D04EFE05FB9AA856398090646
:105E8000B70700406399FA06B757072F9387079320
:105E90003756072F3755072F3EC0D2885288CA87FA
:105EA0005E87A686130646981305C5AB9710790042
:105EB000E780C045630D0A0A638B0D0AB30D4901E3
:105EC0006307B90B635EB903B70700D1CA973707F9
:105ED000080063FFE70AB70700D1FD17EE9763E0FC
:105EE000E7043758072F1308C896E1A0B757072FC4
:105EF0009387879271BFB757072F9387874549BF0D
:105F0000B756072F3756072F3755072F938646B0BA
:105F10001306C6659305501B130545B42D31B757BD
:105F2000072F9387C7743ECAB747072F938707FB8E
:105F3000894A3ED20A85B7D5072FE177EE864A8691
:105F4000938505FB3E9541312DE1D2451255EE86F4
:105F50004A86953941E58547638BFA00EE864A8685
:105F6000B705082F3705002FB939854A61F5EFE0ED
:105F70001FD685472AD45ECA3ED263160A0623205E
:105F80007C01832A4B008504110CDE9A210B39B366
:105F9000B70700D2CA972167E3F5E7F4B70700D245
:105FA000FD17EE97E3E5E7FC2DBF3758072F1308E1
:105FB000489342CAEFE07FA55248AA853756072F7B
:105FC0003755072FEE874A87A6861306469813058E
:105FD00085B597107900E780603359B33758072F9C
:105FE00013080895F9B7835741012257B337F000DA
:105FF00063F9E704B307F740416733B7E7027D5918
:1060000019E31399070163732A015289B3E73C012D
:10601000ADCF5245CA85EFE0FFCBAA8A29E5EFE074
:10602000DF9ED246AA853756072F3745072F4A8766
:10603000130646981305453B97107900E780002D1D
:1060400079B3EFE09F9CAA853756072F3755072F66
:10605000130646981305C5B897107900E780002B02
:106060009307101071B9E2473747072F930D47FB8D
:10607000B3E7970185EFAA8572454A8697107900A4
:10608000E780C0725685EFE07FD1D247330A2A41BC
:1060900002D2CA973ECAF247CA973ECEF9BDB74769
:1060A000072FA145138547FBEFE0FFF483A70D0001
:1060B000FDD783A74D00E5D7C9E09257BDCF084073
:1060C000EFF09FAC3DE983D52A0B03D50A0BEFE037
:1060D000DFA525C52ACA5685EFE05FCCD2470DB1B2
:1060E000B385FA00984163870C0083A60C00B98E33
:1060F00023A0DC00638B090093F6470085CE83A6BE
:106100000D007246358F3E9618C2624705C313F7DD
:10611000F73F09EF3306F940130700406373C700E8
:106120003A8662453ED2EFF0DF9992579107E3E954
:1061300027FB89BF83A64D00E9B78147CDBF8327E1
:10614000C40D0257998FD697232EF40C81474DBE6C
:1061500059719307F00ED6CA3ECC86D6A2D4A6D2E9
:10616000CAD0CECED2CCDAC8DEC6E2C4E6C2EAC01D
:106170008947930A810163F3A700814A02CE630F26
:106180000638638D0538AA8988413284AE8BEFF0DA
:10619000BF9F1345150013BB3900337BAB0083A4AD
:1061A0000B00B3376001B307F04013068010814540
:1061B0001309C10122853379F90097107900E7802E
:1061C000A05E268504C08546614693054400EFE045
:1061D0007FBFAA842DE1894763E7370D8347B40168
:1061E00091CF630D0900EFF01F8B2320A9006302FC
:1061F0000532614693054400EFF0BF8C034744002D
:106200009307900E032904006306F7048547638211
:10621000F902EFE08FFFAA853756072F3755072F72
:10622000CA8613064698130545BE97107900E78085
:10623000E00D89648904724501C58145EFF0BF8B8B
:10624000130680108145228597107900E780C0559C
:10625000A68AB1AC4A85EFF03F939345150093F5BC
:10626000F50F13054400EFE03F98AA8469F5034752
:106270005400C14763F9E7020547E38CE9FAEFE010
:10628000CFF803475400AA853756072F3755072FF5
:10629000C147CA8613064698130505C397107900AF
:1062A000E780C00679B7724AE147138CE9FF93850E
:1062B000F9FF5687232EF40CD28613362C0093B5A3
:1062C00015002285EFF0DF99AA8A63170524894714
:1062D000054563E43701EF1080298327C40D934CF3
:1062E000150002D093840701C19802D202D402D6CD
:1062F00093FC1C00624D3389F44063920C066310DA
:106300000A06180893070903BA9793568D0103C725
:10631000F7FD93570D01BD8EB3C6A601135D8D0029
:10632000B3C6A60193F6F60F6305D70463830C0486
:106330008547E380F9F036C63AC4EFE00FED224717
:10634000B246AA853756072F3755072F13064698AA
:106350001305C5C697107900E78040FBD9BD0840FA
:1063600085464A860C103E95EFE0DFA5AA8451D9F8
:10637000D9B563070A004A860C105285EFF06FF416
:106380008327C40DB304F9008347B401232E940C72
:1063900003A94B0091CB894763FB37038324C40DCA
:1063A00093840402232E940C637F99028547E38231
:1063B000F9E8EFE08FE5AA853756072F3755072F05
:1063C0004A87A68613064698130545CA61B7084052
:1063D00085461306000226959305040EEFE09F9E66
:1063E000AA844DDD89BD63000B0A63000A0AEF1021
:1063F000001869ED130600023305C10081459710AE
:106400007900E780603A0C105285EFF0CFEE9305EB
:1064100000023756072F3305B100130686CEEFF082
:106420006FE713060002B305C1001305040E9710B1
:106430007900E780203831C9EFE02FDDAA85B75415
:10644000072F3755072F13864498130585CF9710CC
:106450007900E780A0EB3756072F1306C6D29305C5
:1064600000021305040EEFF0EFE2EFE00FDAAA8569
:106470003755072F138644981305C5D39710790015
:10648000E780C0E819A063130A04854763E1870326
:10649000B744072F938444FB9C4091CBDC4081CBD5
:1064A0001309C40181498347540063C6F902B650F9
:1064B000265496540659F649664A464BB64B264C26
:1064C000964C064D5685D64A656182808145528537
:1064D000EFF06FE25DBF032A09005285EFF06FF322
:1064E0001DE585092109C1B713972700529713F6B7
:1064F0001700144319CA9040B18E14C385070327AF
:1065000049000983E3E2E7FEE9BFD040F5B78147E0
:10651000FDB79304101005B3AA8431BB930A201071
:1065200079B72E86AA85094525B1B707082F83A715
:1065300007FE357122CD26CB4AC94EC752C556C378
:106540005AC1DEDEE2DC06CF156ABD6A83A94700C8
:106550002A8C2E89328B232006002A84814481478D
:10656000130AAA0A938ABABE930B000603570400C3
:1065700063154707584063FAE90263050902EFE033
:10658000CFC81C445840AA853746072F3745072FE8
:106590004E88A686130646791305057A971079006A
:1065A000E780C0D613054010C5A014443387E940E6
:1065B000E365D7FC850413040402E39974FB6302CA
:1065C0000904EFE08FC4AA853746072F3755072FF8
:1065D00013064679130545880DA0631357098DC727
:1065E00063010902EFE06FC2AA853746072F3745DE
:1065F000072F130646791305C57F97107900E780AA
:10660000E0D01305301049A0280897107900E780E2
:10661000E04713965400E285280897107900E78038
:1066200020472C08280097107900E780A0464146B3
:106630002C003305C40097107900E780A01719CD0E
:10664000E30109FCEFE06FBCAA853746072F3755F9
:10665000072F130646791305C58245B7854799BFAD
:10666000A1C0C1768506369705EF0347240093063F
:10667000F00F6317D702834634006393E602B387B3
:10668000F4402320FB000145FA406A44DA444A49B9
:10669000BA492A4A9A4A0A4BF65B665C0D618280C7
:1066A000E30109F6EFE06FB603570400AA85374609
:1066B000072F3755072FA68613064679130505853C
:1066C00097107900E78080C42DBF01C98547630515
:1066D000F502411106C6EFF0EFC8B707502083A7B7
:1066E0004738014813F7070151CBE18B41476399C4
:1066F000E708A167416739A8B727502083A7473823
:106700008D838D8BC9C36382A70809476391E7080E
:1067100091673E873387E702014863F1E5063DE96B
:1067200037075020832647388D828D8AA1CA0548B5
:106730003707020063870601094841676383060142
:1067400021673387E7020148637AE60235E53707B8
:106750005020832647388D828D8A8DC205453707A4
:1067600002006387A600094541676383A60021678D
:10677000B387E7027D162E963338F6004285828075
:10678000A167216741BF9167B5B79167DDBF916789
:10679000096749B7372750208326473841678D82DC
:1067A0008D8AC5D205482167E38D06F90948096736
:1067B000E39906F9116771B73727502083264738C8
:1067C00041678D828D8ACDD605452167E382A6FA81
:1067D00009450967E39EA6F8116759BFB70650201F
:1067E000370750208147938606381307C7371306AB
:1067F00000409CC2232007008507E39CC7FEB72604
:106800005020372750208147938606381307C73713
:10681000130600409CC2232007008507E39CC7FEA7
:1068200082805841B706040081476300D702B7064B
:1068300002008547630BD700C16689476307D7000D
:10684000A1668D476303D7008147B7065020938622
:10685000463898428E071D9BD98F9CC241B7411183
:1068600006C60DE1B707502083A7473813F7070185
:1068700015CBE18B4147639BE702B2403395F500AE
:10688000410182808547631FF500B727502003A789
:1068900047380D830D8B09CB630AA7008946B9479A
:1068A000E30DD7FCEFF00FACC147C1BFBD47F1B757
:1068B000370700C02E97B70700042E966379F700BC
:1068C000370700C07D173A963335F60082803707C8
:1068D00000B0BA950145E3E7F5FE82807971854500
:1068E00022D426D24ECE52CC56CAB2843E8A06D686
:1068F0004AD02A84B689BA8A9D37B3F7A40299C3CD
:10690000EFF04FA6B3F7A9022A89FDFB5686CE8584
:106910002285653B75D58D465686A6852285493FDD
:1069200065D19387FAFFCA97B3D5270322852EC670
:106930003D372320AA00B24525E4B707502003A71E
:106940004738C9470D830D8B11CB8546C547630773
:10695000D7007917133717009307F700B3D6F9005C
:10696000B387D50037265020B705502037050004DF
:10697000056EB75871201306463805439385453890
:106980007D1513080EC093880800639FF602B2506D
:10699000225492540259F249624AD24A4561828095
:1069A0008547E31FF4F4B727502003A74738C147B2
:1069B0000D830D8B45D7BD47E30287FA791713374F
:1069C00017009307D70059BF25E89841C94E0D839A
:1069D0000D8B09CBC54E6307670079171337170076
:1069E000930EF700B3F2A400B3D2D20125E4370F1F
:1069F0005020B3E3C6018969130FCF37B70F50207A
:106A000083AE480323A05F38938F0F3893DE5E0177
:106A100093FE7E0013D72E0013DA1E003347470182
:106A20003347D701058B33073703CA94850633678D
:106A300077002320EF0091BF1842C14E0D830D8BCC
:106A400055D3BD4EE30067FA791713371700930E3D
:106A5000D70049BF372F5020B3E306018569130FD4
:106A6000CF37B72F502069BFB707002C83A78713F4
:106A70003747072F130747FC858BA300F700B7079D
:106A8000002C83A7870E858B91C7B707002C83A79F
:106A9000C70F858B2300F700231207008280411166
:106AA00006C622C426C24AC02A897D3FB77758202D
:106AB00093870700985F3744072F130444FC13673C
:106AC000270098DF985F1367070198DF985F1367C7
:106AD000070898DF985F1367074098DF03451400A5
:106AE0008344040097107900E78000EB2685971017
:106AF0007900E78060E9268597107900E780C0E794
:106B0000834509003706002C81461307460063CFF2
:106B1000B602930710102311F4002313F400B707F3
:106B2000002C938707009843C1769386F60F758FE4
:106B30001367072098C3D843758F13670720D8C3FE
:106B4000B240224492440249410182801C421CC24C
:106B50001C43F99B1CC30842B337D000850793C779
:106B6000F7FFE98F1CC21C4385061CC34DB7854740
:106B70006306F500411106C6EFE0DFFEB747072FB9
:106B8000938747FC6395A5002381C700828081E538
:106B9000A381C70082800947E39EE5FC2381C700EB
:106BA000C5BF411106C622C485476304F500EFE066
:106BB0007FFB2E8495C96391A50297107900E78029
:106BC00060DB97107900E780E0DBA2852244B240C9
:106BD00001460545410161BF97107900E78080D9E2
:106BE00097107900E78000DA97107900E78080DA63
:106BF000E9BF411106C622C426C285476304F500D9
:106C0000EFE05FF6B747072F938747FC2A872E846C
:106C100003C5170085C183C407006399E502268573
:106C200097107900E78040D6268597107900E78095
:106C3000A0D429A097107900E78000D6A28522442D
:106C4000B240924405463285410115B7971079004C
:106C5000E78080D4E9B7B757712093870700E843EE
:106C60009317250013D5470132058280B75671204E
:106C700093860600FC4205677D17C983F98F01459D
:106C800091CBE8424981798D130505801305158064
:106C90003335A0008280B74770209387470F984311
:106CA000B79658201367071098C3984313671701C6
:106CB00098C39C42370700E07D17F98F9CC2B74705
:106CC000072F23A007FC8280011106CE9307000A3C
:106CD0006305F50263CCA70093075003630AF50E22
:106CE00093070005630AF50EEFE0DFE79307001452
:106CF000E31CF5FE09478D46F1A80947BA8605460B
:106D000083A805009307E00F03A88500FD18CC4178
:106D1000E3EC17FDB367B8001D43E367F3FCB777F7
:106D200058209387070003A3470093F8F80F1378C0
:106D300078001AC6324322089D89137303F0B368A2
:106D4000130146C6B248AE057D1623A2170183A8DB
:106D50004700058AFD1693F8F88F33E8080123A24F
:106D6000070103A84700F1789388F87F337818016A
:106D7000B365B800CCC38C4793F6F60F7D17F9992D
:106D80004D8E90C7D0471377F70F32C42246137643
:106D900006F0D18E36C4A246D4C7944B36C2924672
:106DA00093F606F0558F3AC2124798CB9843719BE1
:106DB0001367170098C3D84B13671700D8CBD84B6D
:106DC000058B75FFF24005611703790067000356D4
:106DD0000547BA863A862DB7094785460DB7B77776
:106DE000582093870700D8434111F1763AC63247BD
:106DF0009386F67F137707F03AC63247D8C3D84355
:106E00001377F78FD8C3D843758FD8C39847799B2A
:106E100098C7D8473AC42247137707F03AC42247A5
:106E2000D8C7984B3AC21247137707F03AC21247B5
:106E300098CB9843719B1367270098C3D84B13676F
:106E40001700D8CBD84B058B75FF5145410117036F
:106E500079006700A34D011106CE9307000F63026E
:106E6000F502B756072F3756072F3755072F93864A
:106E700006591306C6729305F00C1305255DEFE065
:106E80009FCCB777582093870700D843F176938635
:106E9000F67F3AC63247137707F03AC63247D8C36F
:106EA000D8431377F78FD8C3D843758FD8C3984783
:106EB0001367170098C7D8473AC42247137707F0DB
:106EC000136727003AC42247D8C7984B3AC21247E3
:106ED000137707F0136717003AC2124798CB98430D
:106EE0001367370098C3D84B13671700D8CBD84B1C
:106EF000058B75FFF2401305000F0561170379003C
:106F00006700C342B717702093870700D857B706AA
:106F100000E0558FD8D7D857B706C001558FD8D7BE
:106F2000D857B706000E558FD8D7D857B7060010D8
:106F3000558FD8D7B74770209387070D9843558F43
:106F400098C3379758201C43B7060800D58F1CC339
:106F5000828011C145BFB79658209C423707F8FF81
:106F60007D17F98F9CC2B74770209387070D984310
:106F7000B70600F0FD16758F98C38280B747702062
:106F80009387070D984319C9B7060040558F98C3DA
:106F900013052003170379006700C338B70600C044
:106FA000FD16758F98C38280B717702093870700EE
:106FB00001C905476302E502411106C6EFE09FBA29
:106FC0009843B70680FCFD16758F98C31305C01251
:106FD00017037900670003359843B70680FCFD1658
:106FE000758FB7068000558FCDB7B717702083A770
:106FF00007000145DD839D8B91C705473E8563836F
:10700000E70009458280411106C6C53711C99307BB
:10701000F5FF93B717001395F700B2404101828046
:107020003715020013050534CDBFB71770209387BD
:10703000070001C905476301E502411106C6EFE0FB
:107040007FB29843B70600F4FD16758F98C30D45BF
:10705000170379006700032D9843B70600F4FD1667
:10706000758FB7060004558FD5B7B717702083A763
:1070700007000145E9838D8B91C705473E856383F2
:10708000E700094582808280011122CC2EC606CEFF
:107090002A84EFD01F8A93078002B24563EB8702F0
:1070A000014505C433D7870293561700BE96B3D661
:1070B000E602631CD400814694C1DCC198C523A6B6
:1070C000050023A80500C0C90545F24062440561DA
:1070D0008280930750036308F40293070005114769
:1070E0006304F4029307000A0947630FF40093074F
:1070F000000F630FF400930700140145E317F4FC3D
:107100000547BA8655BF19478546930700146DB7E2
:10711000A28705478D464DB7B777582083A707004C
:10712000797122D426D28D8B06D64AD04ECE09470D
:107130002A84BE846387E7000D476384E700B33485
:10714000F0001C406386970A05476393E70AB74738
:1071500070209387470F9843B7068008832944001F
:10716000558F98C39843B706080037795820558F34
:1071700098C3379758201C43B706002013094917B6
:10718000D58F1CC3EFD0EFFAB71770209387070095
:10719000F847FD76BD063AC63247758F1367070874
:1071A0003AC63247F8C7F847419B13671700F8C73C
:1071B00083270900DD9B2320F900930700146384D3
:1071C000F900EFE03F9A83270900918BEDDF294515
:1071D00097007900E7800015832709001307001442
:1071E00093E787002320F900B747072F23A0E7FC88
:1071F0001C409DE30C4448480146EFD0CFE81C40BA
:1072000063869704FD14B9E02254B2509254025997
:10721000F24945616FF03FA80547639CE7002145AF
:107220009D35484893058400EFF01FAA2545A13DF0
:10723000F9B70D476396E7004848EFF0DFC1C1B7E3
:107240000947E39EE7FAEFF09FB955BFB2502254C9
:1072500092540259F2494561828009476309E50663
:10726000011106CEAA876367A7001DE9F2400561F8
:107270006FD02FEC0D471305000F6387E704EFD0A5
:10728000CFF8AA853756072F3755072F1306066004
:107290001305856097007900E780400701452DA020
:1072A000EFD02FE9B717702093870700F8473AC649
:1072B000324513078002FC4711811375F50F330522
:1072C000E502BD8B3355F502F240056182805145E0
:1072D0008280011126CAB7745820938404009C4010
:1072E00022CC4AC88D8B06CE09472A843E89638703
:1072F000E7000D476384E7003339F0004A85B13F6A
:1073000019E1EFE03F86DC4085463EC6B247D040FB
:10731000D84093F7F70F85072D831D8B218201C776
:10732000BA86137776001CC4B387D70248C02320DF
:107330002401F24054C418C8D24442493305D5024E
:10734000BA973355F50248C862440561828001113D
:1073500022CC37745820130404001C4006CE094781
:107360008D8B3E856387E7000D476384E7003335E7
:10737000F000E5355C4005483EC212475C40544091
:107380001377F70F0507AD829D8AA18381C63688E2
:1073900093F677005C4433070703F2403EC6B245DC
:1073A0001C48624493F5F50F3EC485052246B30799
:1073B000050337450F001305052436971376F60F9E
:1073C0000561B387A70213051600B3D7E702B3D749
:1073D000B70233D5A7028280B7F710209387070042
:1073E0009C4F8983858B89E7411106C6EFE08FF7B3
:1073F0001307300691476309E502636CA70641470E
:10740000930700086302E5026364A7042D478567BC
:10741000630CE5003147930700406307E500591509
:10742000133515009317B50037071120032607827F
:10743000B706000113972700FD1613954700358FF7
:10744000718DB706112023AEE680133515008280BA
:107450001307100693070004E308E5FC1307200652
:10746000A147E303E5FC3D1513351500931785008F
:1074700065BF1307A006C147E308E5FA6364A702E6
:10748000130770068547E301E5FA13079006930793
:107490000020E30BE5F81305A5F913351500931744
:1074A000550059B71307B0068947E30FE5F61305F2
:1074B00035F9133515009317D500BDB7011122CC4E
:1074C00006CE26CA3384E6409D4563D48500EFE0AE
:1074D0006FE93EC63AC436C232C0AA84F53DB7450C
:1074E0000408938505E0024692462247B247B30856
:1074F000B5008A0883A5080013956500E34C05FED6
:1075000013158600458D23A0A80003A60800931537
:107510006600E3CC05FE7D5803A608008506050439
:10752000B315E800B316D8003318880093C5F5FFEB
:107530001348F8FF3378F800D58D41823318E800FE
:10754000F18DB3E5050113F7F50F4207498FB70732
:1075500000015D8F23A0E80083A708001397670050
:10756000E34C07FEF2406244D24405618280B727B3
:10757000002D93870700E85305810589828000006C
:107580000000000000000000000000000000008477
:10759000856659311C5DD7DE376EBDDE1C66157FF2
:1075A0009AFB630E2AC9DED2BF2CF9DE35F9BB6126
:10800000AA50010200900000005000006E7673003C
:108010000000000000000000000000000000000060
:10802000AA50010000E00000002000006F746164AD
:10803000617461000000000000000000000000000A
:10804000AA50001000000100000030006170703084
:108050000000000000000000000000000000000020
:10806000AA5001820000310000000D0073706966A3
:108070006673000000000000000000000000000027
:10808000AA50010300003E0000000100636F72650A
:1080900064756D700000000000000000000000002A
:1080A000EBEBFFFFFFFFFFFFFFFFFFFFFFFFFFFF08
:1080B000BF2C8F2ECFCF0AB44D0BC6DEA81F7A2857
:1080C000FFFFFFFFFFFFFFFFFFFFFFFFFFFFFFFFC0
:1080D000FFFFFFFFFFFFFFFFFFFFFFFFFFFFFFFFB0
:1080E000FFFFFFFFFFFFFFFFFFFFFFFFFFFFFFFFA0
:1080F000FFFFFFFFFFFFFFFFFFFFFFFFFFFFFFFF90
:020000040001F9
:10000000E906022F360A002FEE0000002000000053
:10001000006300000000000120001840D81D070008
:100020003254CDAB000000000000000000000000D2
:1000300045535033325F5333315F76302E322D3299
:100040002D67383231386633312D64697274790026
:100050004550617065725765620000000000000045
:100060000000000000000000000000000000000090
:1000700030313A31313A35380000000000000000DC
:1000800041756720323420323032360000000000E3
:1000900076362E312D62657461310000000000005B
:1000A0000000000000000000000000000000000050
:1000B000F5924F3A3A71D5084D630D528B28E5966B
:1000C0004C8C83E59A32367B29EE1756F1E1B2B8B3
:1000D00000006300100300000000000000000000AA
:1000E0000000000000000000000000000000000010
:1000F0000000000000000000000000000000000000
:1001000000000000000000000000000000000000EF
:1001100000000000000000000000000000000000DF
:10012000040000000EA300400000000000000000DA
:10013000A2A100400000000001000000B8A20040A1
:100140006EA20040C8A100407CA100400000000059
:100150002F6465762F756172742F30002F64657679
:100160002F7365636F6E6461727900002F6465762A
:100170002F636F6E736F6C65000000006170705FBD
:10018000696E697400000000492028256C752920DB
:1001900025733A204170706C69636174696F6E20D9
:1001A000696E666F726D6174696F6E3A0A00000065
:1001B000492028256C75292025733A2050726F6AD2
:1001C000656374206E616D653A20202020202573C0
:1001D0000A000000492028256C75292025733A2043
:1001E0004170702076657273696F6E3A202020200E
:1001F000202025730A000000492028256C7529203D
:1002000025733A20436F6D70696C652074696D6564
:100210003A202020202025732025730A00000000AA
:10022000492028256C75292025733A20454C462005
:1002300066696C65205348413235363A2020257373
:100240002E2E2E0A00000000492028256C7529203A
:1002500025733A204553502D4944463A202020200A
:1002600020202020202025730A00000028636F6EC4
:1002700073747261696E742069676E6F7265642948
:100280000000000065667573655F696E6974000043
:10029000492028256C75292025733A204D696E2048
:1002A00063686970207265763A20202020207625C8
:1002B000642E25640A000000492028256C75292039
:1002C00025733A204D6178206368697020726576E5
:1002D0003A20202020207625642E25642025730ACC
:1002E00000000000492028256C75292025733A203C
:1002F00043686970207265763A20202020202020F3
:1003000020207625642E25640A000000452028253B
:100310006C75292025733A202573282564293A20F5
:100320004661696C656420696E20736563757265EA
:1003300020654675736520696E69740A00000000C7
:10034000286269745F73746172745F696E5F72654D
:1003500067202B206269745F636F756E745F7573BD
:1003600065645F696E5F72656729203C3D203332AA
:10037000000000002F2F4944462F636F6D706F6E91
:10038000656E74732F65667573652F7372632F6561
:1003900073705F65667573655F7574696C69747990
:1003A0002E630000626C6B203E3D2030202626200C
:1003B000626C6B203C2045465553455F424C4B5F79
:1003C0004D4158006E756D5F726567203C3D202879
:1003D00072616E67655F726561645F616464725FBC
:1003E000626C6F636B735B626C6B5D2E656E642019
:1003F0002D2072616E67655F726561645F61646420
:10040000725F626C6F636B735B626C6B5D2E737497
:1004100061727429202F2073697A656F6628756967
